:020000040800F2
:10000000C818002001010008931D0008391B0008D2
:10001000911D00084503000801360008000000009B
:10002000000000000000000000000000192100088E
:10003000EF03000800000000172100081B21000842
:100040001B0100081B0100081B0100081B01000820
:100050001B0100081B0100081B0100081B01000810
:100060001B0100081B0100081B010008B903000860
:100070001B0100081B0100081B0100081B010008F0
:100080001B0100081B0100081B0100081B010008E0
:10009000993500081B0100081B0100081B0100081E
:1000A0001B0100081B0100081B0100081B010008C0
:1000B0001B0100081B0100081B0100081B010008B0
:1000C0001B0100081B0100081B0100081B010008A0
:1000D0001B0100081B0100081B0100081B01000890
:1000E0001B0100081B0100081B010008DFF80CD0F1
:1000F00000F052F8004800472D380008C8180020CA
:100100000648804706480047FEE7FEE7FEE7FEE7B1
:10011000FEE7FEE7FEE7FEE7FEE7FEE785210008D3
:10012000ED00000840EA01039B0703D009E008C97D
:10013000121F08C0042AFAD203E011F8013B00F8AC
:10014000013B521EF9D27047D2B201E000F8012BF8
:10015000491EFBD270470022F6E710B513460A4647
:1001600004461946FFF7F0FF204610BD30B50B4698
:10017000014600202022012409E021FA02F59D42D7
:1001800005D303FA02F5491B04FA02F52844151EAB
:10019000A2F10102F1DC30BD064C074D06E0E0683B
:1001A00040F0010394E8070098471034AC42F6D3BE
:1001B000FFF7A0FFF03800081039000870B58C1860
:1001C00010F8015B15F0070301D110F8013B2A116B
:1001D00006D110F8012B03E010F8016B01F8016B58
:1001E0005B1EF9D12B0705D40023521E0DD401F854
:1001F000013BFAE710F8013BCB1A921C03E013F81D
:10020000015B01F8015B521EF9D5A142D8D3002051
:1002100070BD000070B5044600688168C943C90715
:100220001CD1816821F00101816000F0E5FC0546E8
:100230000FE000BF00F0E0FC401B022809D9A06AD3
:1002400040F01000A062E06A40F00100E06201208E
:1002500070BD20688068C043C007EBD0002070BD2F
:1002600010B50146406A826A12F0500F05D0006A4C
:10027000026BBDE8104008461047816A41F40071E6
:10028000816201688968C1F3424107290CD1C168C4
:1002900051B9816A21F480718162816AC90403D4F1
:1002A000816A41F00101816200F022F910BD10B5B0
:1002B000406A816A41F040018162C16A41F00401F3
:1002C000C16200F017F910BD10B5406A00F011F9D5
:1002D00010BD0000F8B5002604460096006881684D
:1002E000C943C90728D0816841F0010181601348E2
:1002F00013490068B0FBF1F000E0401E00900028B8
:10030000FBD100F079FC054611E000BF00F074FC61
:10031000401B02280BD9A06A40F01000A062E06ADE
:1003200040F00100E06284F824600120F8BD2068FC
:100330008068C043C007E9D10020F8BD500000200C
:1003400040420F00FEE70020704700207047000089
:1003500010B500220449054802F014F90449034885
:1003600002F00AF9002010BDDC100020500200202D
:10037000F40C002010B50146034802F0FDF80248D5
:1003800002F0DEF8002010BD50020020094A10B52E
:10039000D2F81822D2F814220AB1012010BD0A4660
:1003A0000146044802F0EEF8BDE81040014802F0B2
:1003B00029B9000050020020014800F017BA0000DF
:1003C0000C02002030B590F840500124AC40C56BC1
:1003D0006C60046863604368102B036803D0996005
:1003E0000068C26030BD9A600068C16030BD70476F
:1003F00070470000F8B50024009490F824202546AA
:10040000012A12D0012280F824204A681F23072ADB
:100410000DD20668776B521E02EB820293409F4317
:100420000B6893401F43776319E00220F8BD06680C
:100430000D2A0AD2376BD21F02EB820293409F43F0
:100440000B6893401F43376309E0F76A0D3A02EBEC
:10045000820293409F430B6893401F43F7620A68F0
:10046000072306680A2A0AD3F7680A3A02EB42020F
:1004700093409F438B6893401F43F76008E03769C0
:1004800002EB420293409F438B6893401F433761C6
:100490000A68102A01D0112A20D1124B02689A4210
:1004A00017D193681B0219D4936843F40003936037
:1004B0000968102912D10C490C4A0968B1FBF2F104
:1004C00001EB8101490000E0491E00910029FBD1A8
:1004D00004E0816A41F020018162012480F8245007
:1004E0002046F8BD002401405000002040420F008B
:1004F00070477047704700002DE9F0414FF000074A
:1005000004003D467ED0A06A002628B9E66284F841
:100510002460204600F07EF82046FFF77BFEA16AAB
:10052000C90600D420B1A06A40F01000A06269E0C2
:10053000A16A21F4885141F00201A1626268E16977
:10054000E3680A4347EA43010A43A1684FF480770E
:10055000B94209D0012907D05FF00001D4F814C0D6
:10056000BCF1010F02D00AE03946F7E7F3B1A36A04
:1005700043F02003A362E36A43F00103E3622368CC
:10058000D3F804C02CF4694C4CEA010CC3F804C045
:1005900021688B68DFF870C003EA0C0313438B609B
:1005A000A168B9420BD0012909D00CE0DFF85CC08A
:1005B000A3690CEB43330B4343F40061DFE7218A6B
:1005C0000D05A5F580152168CB6A23F470032B4334
:1005D000CB62216889680E4B1940914208D1E662CE
:1005E000A16A21F0020141F00101A162BDE8F081A0
:1005F000A06A20F0020040F01000A062E06A40F023
:100600000100E0620120F1E7FDF7E1FF00E0FFFFFC
:10061000FE0E1FFF70B586B000250095019502956E
:1006200003950646284C026828490320284BA2421D
:100630002ED18A6942F400728A618A6902F40072DA
:1006400004928A6942F004028A61896901F0040116
:1006500004919E21CDE900106946184600F0E8F9A2
:100660001D4C1C48C4E900058020C4E9025040002C
:1006700020618000C4E90505C000E061204600F06B
:100680005FF908B1FFF7B4FE3462666206B070BD70
:10069000124CA242FAD18A6942F480628A618A6964
:1006A00002F4806204928A6942F004028A618969D4
:1006B00001F0040104916021CDE90010694618465B
:1006C00000F0B6F9E2E7000000240140001002400B
:1006D00000080140080002400C02002000280140F0
:1006E0002DE9F047894604463B4900683B4F0E1D03
:1006F0009046884201D0B84207D1306810F4702F7C
:1007000003D001252846BDE8F08794F8240001288D
:100710000CD0012084F824002046FFF7DBFD050003
:100720004FF0000004D084F82400EBE70220EAE751
:10073000A16A40F60162914341F48071A16221688F
:10074000B94218D1326812F4702F14D0A16A41F462
:100750008011A1623168490505D5A16A21F40051D3
:1007600041F48051A162A16AC9040AD5E16A21F06D
:100770000601E16206E0A26A22F48012A2624968E0
:10078000E9E7E06284F82400216A15488862216A5A
:100790001448C862216A1448086321686FF0020097
:1007A00008602068816841F4807181602168434657
:1007B0004A464C31206A00F0F1F820688168C1F3A4
:1007C00042410729816803D041F48011816099E793
:1007D00041F4A001FAE70000002401400028014094
:1007E00061020008C9020008AF0200082DE9F05FAD
:1007F000C16B0C6801680B68D0F840C0042202FA93
:100800000CF2494DDFF824A1494E4A4FDFF828B1D8
:10081000DFF828E122422CD05A072AD50A6892062E
:1008200003D40A6822F004020A600168A94201D1D7
:10083000042219E0514501D1402215E0B14202D114
:100840004FF4806210E0B94202D14FF480420BE0D5
:10085000594502D14FF4802206E0714502D14FF490
:10086000800201E04FF080622F4908394A60C16A76
:100870003BE04FF0020808FA0CF818EA040F4FF0BA
:1008800000094FF0010235D05FEA837832D50B685A
:100890009B0605D40B6823F00A030B6080F8212027
:1008A0000168A94201D1022219E0514501D120225B
:1008B00015E0B14202D14FF4007210E0B94202D10A
:1008C0004FF400520BE0594502D14FF4003206E0DC
:1008D000714502D14FF4001201E04FF0007212494D
:1008E00008394A6080F82090816A00291AD0BDE852
:1008F000F05F0847082505FA0CF5254212D01B07C2
:1009000010D50B6823F00E030B6090F84010C36BFA
:1009100002FA01F15960826380F8212080F820906A
:10092000016BE2E7BDE8F09F080002401C000240B6
:100930003000024044000240580002406C00024077
:1009400030B528B308C8134914221944B1FBF2F199
:100950008900C16310498163022141771A6843F617
:10096000F0718A43D0E900142143D0E902452C43B9
:10097000214304692143446921438469214311438C
:10098000196000214163012242770177084630BD9A
:10099000012030BDF8FFFDBF0000024070B50446E5
:1009A00090F82000002501280CD0012084F82000B8
:1009B00094F821600020012E06D084F82000022542
:1009C000284670BD022070BD022684F82160A06315
:1009D0002068066826F0010606602046FFF7F2FC54
:1009E000E06A00282068016802D041F00E0106E0AC
:1009F00021F0040101602068016841F00A010160F2
:100A00002068016841F001010160D9E770B5044632
:100A100000F0F2F80546601C02D004480078044457
:100A200000F0EAF8401BA042FAD370BD4400002059
:100A30002DE9F84FDFF890A100220AF1040B1446CB
:100A400001274FF00F090BF1040E00BF0B6807FAE6
:100A500004F52B40AB4274D1DFF870C14E68A6EBB1
:100A60000C0866452BD00DDC032E34D005DC36B3E4
:100A7000012E19D0022E2FD11BE0112E16D0122ECE
:100A80002AD119E0B8F5881F19D006DCB8F5803FE7
:100A900015D0B8F5801F1FD111E0B8F5001F0ED09A
:100AA000B8F5041F18D10AE0CA6815E0CA68121D1B
:100AB00012E0CA6808320FE0CA680C320CE08A689B
:100AC0002AB1012A4FF0080203D0456104E0042254
:100AD00002E0056100E00022FF2B01D8064601E09C
:100AE00000F104064FEA840501D9A5F12005D6F8E6
:100AF00000C009FA05F82CEA080C02FA05F54CEAE0
:100B0000050CC6F800C04D68ED0057D5304DAE69F4
:100B100046F00106AE61AD6924F0030605F001055B
:100B200000952C4D06EB050CDCF80850A6074FEAA3
:100B3000167809FA08F6B543274EB04202D10026CE
:100B400010E03BE0254EB04201D101260AE0244EE0
:100B5000B04201D1022605E0224EB04201D1032667
:100B600000E0042606FA08F62E43CCF808604D682B
:100B7000DAF80060ED03554601D51E4300E09E43C0
:100B80002E604D68DBF80060AD035D4601D51E4365
:100B900000E09E432E604D68DEF80060ED02754671
:100BA00001D51E4300E09E432E604D68AD020E4D00
:100BB0002E6801D51E4300E09E432E60641C102C5D
:100BC000FFF444AFBDE8F88F0004014000001110AD
:100BD000001002400000014000080140000C0140EC
:100BE00000100140001401400C0401400AB10161F1
:100BF00070470904FBE70000014880687047000067
:100C000044000020024881680278114481607047E6
:100C100044000020074810B5016841F01001016050
:100C2000032000F073F8002000F006F800F024F82C
:100C3000002010BD0020024070B50D4D04464FF459
:100C40007A712878B1FBF0F00A490968B1FBF0F03D
:100C500000F0A2FD48B9102C07D200222146501EF8
:100C600000F034F800206C6070BD012070BD000001
:100C700044000020500000200C4808B5816941F074
:100C800001018161816901F001010091C16941F0B7
:100C90008051C161C06900F08050009004484168F3
:100CA00021F0E06141F00071416008BD0010024098
:100CB0000000014000F01F02012191404009800026
:100CC00000F1E020C0F8001170470000F0B40E4BB6
:100CD0001B680C46C3F30223C3F10705042D00D99A
:100CE0000425191D072901D2002300E0DB1E01267F
:100CF00006FA05F1491E214099409E40761E164095
:100D00003143F0BC01F046B80CED00E0064900F0BC
:100D1000070208684FF6FF03184040EA0220034A22
:100D200010430860704700000CED00E00000FA0579
:100D300010B50C0605D501F07F0100EB41102830FD
:100D400003E000EB411000F50A7099B232B10122C4
:100D50008272C180190C0181002010BD00228272B4
:100D60008180F9E7704700EB4112D0F85C04D26B48
:100D700001F0E6BD00EB4112D0F85C04D2F83C2251
:100D800001F033BE10B504460A460B0601F07F00A1
:100D900004EB401101D5283101E001F50A7108701A
:100DA000D009487094F82804012809D0012084F85B
:100DB0002804206802F00CFA002084F8280410BDF2
:100DC000022010BD70B50A460446090602F07F00F5
:100DD00003D504EB4011283103E004EB421101F587
:100DE0000A7100258D700870D009487094F82804A5
:100DF000012809D0012084F82804206802F096FA1E
:100E000084F82854002070BD022070BD01F00F014D
:100E100000EB4110B0F8440280B2704770B5044650
:100E20000D460E0601F07F0004EB401101D528317C
:100E300001E001F50A710870E80948700A61CB7099
:100E400094F82804012809D0012084F82804206897
:100E500002F08EF8002084F8280470BD022070BDD6
:100E600070B50C4601F07F0500EB4511C1E98F23F9
:100E70000022C1F8442281F8292281F8285201F584
:100E80000A716206006802F0ABFA002070BD70B50E
:100E90000D460446090605F07F0003D504EB40111A
:100EA000283103E004EB451101F50A7101228A7033
:100EB0000870E809487094F82804012807D084F8DD
:100EC0002824206802F067FA680602D006E00220B3
:100ED00070BD04F22C41206802F026FA002084F84C
:100EE000280470BD70B50C4601F07F0500EB45117C
:100EF000C1E90F2300224A64012281F8292001F868
:100F0000285F6206006802F06BFA002070BD10B521
:100F10000446006802F046FB000402D5204600F0BB
:100F200049FF206802F03EFB40050CD5206830F8F0
:100F3000441F21F480610180204600F0EDF800217B
:100F4000204600F0FEF8206802F02CFB400405D596
:100F5000206830F8441F21F480410180206802F0AD
:100F600021FB800405D5206830F8441F21F400518E
:100F70000180206802F016FBC00414D5206830F808
:100F8000401F21F004010180206830F8401F21F04B
:100F900008010180204600F0CCF8206830F8441F9A
:100FA00021F480510180206802F0FCFA00051AD576
:100FB000206830F8401F41F008010180206830F8B7
:100FC000441F21F400610180206830F8401F41F087
:100FD00004010180206802F0E5FAC043C00402D594
:100FE000204600F0E3F8206802F0DCFA800508D51E
:100FF000206830F8441F21F400710180204600F081
:101000009CF8206802F0CEFAC00505D5206830F8BB
:10101000441F21F48071018010BD00002DE9F041D2
:1010200086B004004FF0000504D094F8290400268F
:1010300020B108E0012006B0BDE8F08184F8286402
:10104000204600F04BF8032084F82904206802F0C1
:1010500064F904F11001142288466846FFF762F82B
:1010600094E80F0002F0B2F80021206802F0ADFA17
:101070005FF0010704EB451080F8297000F8285F45
:101080008581C670066146616D1C86610F2DF1D3A6
:101090005FF0000004EB401181F8296281F828021A
:1010A000888681F82B62C1F83862C1F83C62401C26
:1010B000C1F840620F28EDD3142241466846FFF77D
:1010C00031F894E80F0002F019F984F8246084F8EC
:1010D0002974206802F010F90020ACE708B5006818
:1010E0000B49884212D10B48C16941F40001C1612A
:1010F000C069002200F40000009011461420FFF7A0
:10110000E5FDBDE808401420FFF7D4BD08BD000090
:10111000005C00400010024010B504460121D0F8E8
:101120005C0401F03FFDD4F85C04BDE8104001F020
:1011300008BDD0F85C0401F023BDD0F85C0401F0D8
:1011400025BD10B5044690F8280401280BD00120D5
:1011500084F8280484F82410206802F038FA00206B
:1011600084F8280410BD022010BDD0F85C2400F2E1
:101170002C41104601F029BD10B5044690F8280412
:10118000012810D0012084F8280401462046FFF7EA
:10119000E9FD206802F0AEF8206802F0F6F90020C0
:1011A00084F8280410BD022010BD000010B50446CC
:1011B000D0F85C0401F056FDA069002804D0034873
:1011C000016841F00601016010BD000010ED00E073
:1011D0002DE9F84305460078354CC00754D0E06946
:1011E0000026C00008D4E06940F08050E061E0696A
:1011F000012600F0805000902E480168C90512D4E5
:101200000168804641F480710160FFF7F5FC0746F4
:1012100005E000BFFFF7F0FCC01B642823D8D8F816
:101220000000C005F6D5206A10F4407021D0A988CE
:1012300001F4407181421CD0206A1F49012220F430
:1012400040700A6000220A602062C00711D0FFF7D8
:10125000D3FC074641F2883808E000BFFFF7CCFC1A
:10126000C11B414502D90320BDE8F883206A8007ED
:10127000F4D5206A696820F44070084320621EB1EA
:10128000E06920F08050E0612878800705D560682B
:10129000A96820F44040084360602878C00605D55E
:1012A0006068E96820F48000084360600020DBE7A4
:1012B0000010024000700040400442422DE9F04717
:1012C000DFF8548105460E46D8F8000000F007000C
:1012D000B0420CD2D8F8001021F007013143C8F811
:1012E0000010D8F8000000F00700B0426FD1286865
:1012F0004A4C810712D5400703D5606840F4E0608E
:1013000060602878000703D5606840F46050606032
:101310006068A96820F0F000084360602878C00782
:1013200044D06868012816D02168022816D08907A1
:1013300000294CDA616821F0030101436160FFF785
:101340005BFC6968074641F2883001290ED002290A
:10135000814618D026E021688903E9E78901E7E79B
:10136000FFF74AFCC11B494501D918E08146606876
:10137000C0F381000128F3D118E000BFFFF73CFC67
:10138000C11B49450BD86068C0F381000228F5D124
:101390000CE000BFFFF730FCC11B494502D9032018
:1013A000BDE8F087606810F00C0FF3D1D8F800109A
:1013B000404601F00701B1420BD9016821F0070155
:1013C00031430160006800F00700B04201D0012005
:1013D000E6E72878400705D56068E96820F4E06012
:1013E000084360602878000706D56068296920F402
:1013F000605040EAC100606000F016F86168084A79
:10140000C1F30311515CC840064908600020FFF792
:1014100013FC0020C4E7000000200240001002403E
:10142000E03800085000002012A185B00FC98DE8F7
:101430000F0014A0144A006804905168134801F08A
:101440000C03042B10D0082B0ED1C1F38343C90326
:101450001DF803000AD5516804AAC1F34041515C4C
:101460000A4A5043B0FBF1F005B0704708494843C1
:10147000FAE7000002030405060708090A0B0C0D31
:101480000E0F1010010200000010024000127A003E
:1014900000093D002DE9F84F04460078B94DC0071A
:1014A00048D06868C0F38100012807D06868C0F39D
:1014B0008100022809D16868C00306D52868800326
:1014C00038D5606800286FD034E06068B0F5803FA0
:1014D0000BD010B1B0F5A02F11D0286820F48030C7
:1014E0002860286820F4802002E0286840F48030DA
:1014F0002860606888B1FFF77FFB064609E028682E
:1015000040F480202860F0E7FFF776FB801B64281A
:1015100075D828688003F7D50CE0FFF76DFB064609
:1015200005E000BFFFF768FB801B6428F0D828683F
:101530008003F7D42078944E80074FF001094FF0D4
:1015400000083BD5686810F00C0F07D06868C0F33E
:101550008100022809D16868C00306D42868800782
:1015600014D5206901281FD110E02069B0B1C6F858
:101570000090FFF741FB074605E000BFFFF73CFB8B
:10158000C01B0228C4D828688007F7D5286861697D
:1015900020F0F80040EAC10028600FE0C6F80080A3
:1015A000FFF72AFB074606E0E9E000BFFFF724FB50
:1015B000C01B022823D828688007F7D420780007AA
:1015C0002CD57248A169D9B1C0F80090FFF714FB7F
:1015D000074604E0FFF710FBC01B02280FD8686A1B
:1015E0008007F7D56A484FF4FA510068B0FBF1F074
:1015F000009000BF0098411E0091FAD20EE080E0FA
:10160000C0F80080FFF7F8FA074604E0FFF7F4FAA5
:10161000C01B022875D8686A8007F7D42078400775
:1016200060D5E8690027C00008D4E86940F0805020
:10163000E861E869012700F0805000905548016892
:10164000C90513D40168834641F480710160FFF736
:10165000D3FA824606E000BFFFF7CEFAA0EB0A00FD
:1016600064284ED8DBF80000C005F5D5E0680128F5
:101670000AD008B1052813D0286A20F0010028629A
:10168000286A20F0040002E0286A40F00100286285
:10169000E06841F2883B98B1FFF7AEFA82460BE072
:1016A000286A40F004002862EEE700BFFFF7A4FAC2
:1016B000A0EB0A0159455AD8286A8007F6D50CE0F4
:1016C000FFF79AFA824605E0FFF796FAA0EB0A01C7
:1016D00059454CD8286A8007F6D41FB1E86920F034
:1016E0008050E861E06988B36968C1F3810102292B
:1016F00045D00228C6F8608004D0FFF77DFA044682
:1017000038E034E0FFF778FA074604E0FFF774FAB0
:10171000C01B02282BD828688001F7D4206AB0F5B6
:10172000803F05D16868A16820F4003008436860F4
:10173000D4E908010843696821F47411084368601A
:10174000C6F86090FFF758FA044606E015E000BFBF
:10175000FFF752FA001B022809D828688001F7D544
:101760000BE000BFFFF748FA001B022802D9032054
:10177000BDE8F88F28688001F4D40020F8E7012044
:10178000F6E700000010024000004242800442429E
:10179000500000200070004010B5401EB0F1807F66
:1017A00001D3012010BD4FF0E02460610F216017CC
:1017B00000F0F0FA0020A06107202061002010BD99
:1017C00010B590F83C20012A25D0012280F83C2059
:1017D000CA688C6822F4407222434C6822F480620A
:1017E00022430C6822F4006222430C6922F48052E6
:1017F00022434C6922F4005222438C6922F4804235
:10180000224322F40041026800232143516480F8FE
:101810003C30002010BD022010BD30B590F83C20B7
:10182000012A20D0012280F83C20022380F83D309C
:1018300003685C6824F070045C6003685C680D6891
:101840002C435C6003689C6824F080049C600368FF
:101850009C6849680C439C6080F83D20002180F81A
:101860003C10084630BD022030BD10B5040003D046
:1018700094F83D0010B107E0012010BD002084F86D
:101880003C00204600F00CF8022084F83D00211DA9
:10189000206800F09BFC012084F83D00002010BD72
:1018A00008B500680649884208D10648816941F4B4
:1018B00000618161806900F40060009008BD000053
:1018C000002C01400010024070B5044690F83C0026
:1018D000012817D0012584F83C50022084F83D00EF
:1018E0002068826822F0770222F47F4282600868D2
:1018F000502837D00DDC202859D005DC88B31028BB
:1019000041D151E0022070BD302853D040283AD157
:101910003FE060282ED070280BD0B0F5805F03D058
:10192000B0F5005F2FD110E02068816821F0070139
:1019300015E0CB68D1E90121206800F07DFC216829
:10194000886840F0770088601DE0CB68D1E901210C
:10195000206800F071FC2068816841F4804181605A
:1019600011E01EE0CA684968206800F019FD5021A6
:10197000206806E0CA684968206800F022FD6021FE
:10198000206800F063FC84F83D50002084F83C009F
:1019900070BDCA684968206800F002FD40212068D7
:1019A000EFE700212068ECE710212068E9E720211B
:1019B0002068E6E730212068E3E7000010B586B034
:1019C000002100910191029103910068144988421D
:1019D00023D11448816941F008018161816901F0D6
:1019E00008010491816941F0040181618069022448
:1019F00000F0040004904FF46040CDE90004694613
:101A000009480394FFF714F84FF4E060CDE90004AF
:101A1000694606480394FFF70BF806B010BD0000B6
:101A2000002C014000100240000C01400008014061
:101A300070B5044690F83C000D4601280DD00126F3
:101A400084F83C60022084F83D0042B1042A18D09A
:101A5000082A2AD00C2A4DD139E0022070BD206816
:101A600000F0FCFB2068816941F008018161206879
:101A7000816921F004018161206881692A6911432B
:101A800011E0206800F012FC2068816941F40061D7
:101A900081612068816921F48061816120688169A8
:101AA0002A6941EA0221816124E0206800F02AFCD1
:101AB0002068C16941F00801C1612068C16921F055
:101AC0000401C1612068C1692A69114311E02068DD
:101AD00000F044FC2068C16941F40061C1612068E4
:101AE000C16921F48061C1612068C1692A6941EA44
:101AF0000221C16184F83D60002084F83C0070BD83
:101B000010B5040003D094F83D0010B107E00120A7
:101B100010BD002084F83C00204600F00CF80220A4
:101B200084F83D00211D206800F050FB012084F85E
:101B30003D00002010BD7047FEE700003EB50021CB
:101B40001C48009101911A4A0291026092150124E9
:101B50004161C0E9022405254FF460220561C2619C
:101B60004160FEF7C9FC00940194042469461148C1
:101B70000294FEF73FFC02200090019069460D4858
:101B8000FEF738FC03200090019069460948FEF7F3
:101B900031FC0094694607480194FEF72BFC0720AE
:101BA000CDE9000569460348FEF724FC3EBD000070
:101BB000002401406C0100203EB500211248009134
:101BC0000191104A02910260921501244161C0E91D
:101BD000022402254FF460220561C2614160FEF7D4
:101BE0008BFC0520CDE900040420029069460648DC
:101BF000FEF700FC0620CDE9000569460248FEF725
:101C0000F9FB3EBD002801409C0100202DE9F04178
:101C100086B0002000900190029003901E488169D8
:101C200041F020018161816901F020010491816905
:101C300041F004018161816901F00401049181692D
:101C400041F0080181618069144F00F0080041F6FD
:101C5000FB740490012221463846FEF7C7FF01229B
:101C6000DFF83C80D60331464046FEF7BFFF0094C4
:101C700001240225694638460194CDE90245FEF764
:101C8000D7FECDE9006469464046CDE90245FEF73E
:101C9000CFFE06B0BDE8F08100100240000C01400C
:101CA0000008014010B594B000240E940F941094D5
:101CB000119412941C2168461394FEF74CFA1C21CF
:101CC00007A8FEF748FA23482149C0E900148460B8
:101CD000C460046144618461FFF7C7FD4FF4805024
:101CE0000E900EA91B48FFF7EFFD1A48FFF708FFFB
:101CF000129412A917481394FFF78FFD6020CDE9C5
:101D00000004029403940494059400226946114847
:101D10000694FFF78DFE042269460E48FFF788FE01
:101D2000082269460B48FFF783FE0794089409943C
:101D30004FF400500A94CDE90B4007A905480D94D3
:101D4000FFF73EFD0348FFF739FE14B010BD000059
:101D5000002C0140CC01002010B5002208490948A0
:101D600000F0B9FD0849074800F0A9FF07490548F8
:101D700000F0FAFBBDE81040024800F0EDBF0000A3
:101D80000000002050020020340100203400002018
:101D9000FEE770470907090E002806DA00F00F0079
:101DA00000F1E02080F8141D704700F1E02080F879
:101DB000001470472DE9FC5F4FF000080446ADF8B1
:101DC0000480ADF8008048F60F7B4FF002094FF415
:101DD000806692E1BDF8041011F00F072BD030F8A7
:101DE0002710ADF80010BDF80010090478D530F8C0
:101DF000272040F68F710A4020F8272004EB471572
:101E000095F8320205F50A750028206869D029780E
:101E100030F8212052047DD5B0F8503009EBC101D3
:101E2000194406EB4101415AC1F309015FEA010A75
:101E300071D0EA88D0E0BDF80410C9062AD4018820
:101E400001EA0B010180206804F12805B0F8502058
:101E50002B7809EBC301114406EB4101405AC0F352
:101E600009006064E16B0844E06300212046FEF74E
:101E70007AFF94F824000028ABD0A8690028A8D1E4
:101E800094F82400216840F08000A1F84C0084F808
:101E9000248032E1018804F50A75ADF80010BDF820
:101EA000001009051ED5B0F850302978062202EB43
:101EB000C101194406EB4101405A04F22C41C0F320
:101EC0000903EB61AA88206801F070FB2068018893
:101ED00040F68F72114001802046FFF746F90CE171
:101EE000A0E055E0BDF800100904D2D5028840F604
:101EF0008F710A4002802068B0F85030297806229D
:101F000002EBC101194406EB4101405A83059B0DC8
:101F1000EB6101E051E063E008D0AA8869692068BC
:101F200001F044FBE96968690844686100212046C2
:101F3000FEF720FF2068B0F85010891D06EB410124
:101F4000014428693E280CD9C0F34F12C00601D1C4
:101F5000521E92B24FF6FF7000EA822040F4004019
:101F600009E0C0F34F02C00701D0521C92B24FF6F5
:101F7000FF7000EA82200860216808884BF68F72A3
:101F8000104080F4405048F2800210430880B4E0D2
:101F9000B0F850202B78062101EBC301114406EB69
:101FA0004101415AC1F309015FEA010A24D0AA881C
:101FB0005346696901F0FAFA1EE0B0F85020062392
:101FC00003EBC101114406EB4101415AC1F3090180
:101FD0005FEA010A04D02A895346696901F0E6FAEA
:101FE0002978206830F8213048F68F72134048F283
:101FF000C002134320F82130E96901EB0A00E861CF
:10200000696901EB0A026A61AB6913B1286950453D
:1020100004D929782046FEF7ADFE03E02978204652
:10202000FEF71EFFBDF80000000666D5206804EB31
:10203000471530F8271001EA0B0120F8271095F812
:10204000320028350028206812D0297830F8212065
:10205000B0F8503052061ED509EBC101194406EB09
:102060004101405A83059B0DEB6124D0EA881EE0B4
:10207000B0F850302A7809EBC201194406EB41014F
:10208000405A83059B0DEB6121D0AA8869692068BD
:1020900001F0A3FA1BE0062202EBC101194406EB92
:1020A0004101405A83059B0DEB6104D02A8969697F
:1020B000206801F092FA2978206830F8212048F64B
:1020C0008F731A404CF280031A4320F821202068B5
:1020D000B0F850202B7809EBC301114406EB410105
:1020E000405AC0F30900E86169690A186A612978F1
:1020F000AB69204663B1FEF7F5FE2068B0F84410E6
:10210000ADF8041009043FF565AE0020BDE8FC9F62
:10211000FEF729FEF1E770477047FEF773BD30B553
:1021200093B028216846FEF716F814210AA8FEF796
:1021300012F8002401200F941094119401041294B9
:102140008DE8130004904FF4E010CDE9081002254B
:1021500007956846FFF79EF90F20CDE90A0568024A
:10216000CDE90C4002210AA80E94FFF7A7F812202F
:102170000F90A803CDE911040FA8FFF729F813B0B9
:1021800030BD00000D48016841F001010160416867
:102190000B4A1140416001680A4A11400160016820
:1021A00021F480210160416821F4FE0141604FF477
:1021B0001F0181600449C00308607047001002409D
:1021C0000000FFF8FFFFF6FE08ED00E0F0B5026842
:1021D000164B174C174D4FF08047984205D0B84228
:1021E00003D0A04201D0A84203D122F070064A6871
:1021F0003243984205D0B84203D0A04201D0A84251
:1022000003D122F44074CA68224322F080044A6950
:10221000224302608A68C2620A688262984201D1DF
:102220000969016301214161F0BD0000002C0140FA
:10223000000400400008004010B5846842EA032210
:1022400024F47F440A432243826010BD826822F056
:1022500070020A4342F007018160704730B5026A9C
:1022600022F001020262026A4368846924F0730565
:102270000C682C4322F002058A682A430A4DA842C2
:102280000BD122F00805CA6823F440732A434D6934
:1022900022F004021D438B692B434360846149682B
:1022A0004163026230BD0000002C014030B5026A7B
:1022B00022F010020262026A436884690D6824F405
:1022C000E64444EA05248D6822F0200242EA051221
:1022D0000B4DA8420ED1CD6822F0800242EA0512D1
:1022E0004D6923F4406343EA85038D6922F040027F
:1022F00043EA85034360846149688163026230BDBB
:10230000002C014030B5026A22F480720262036A36
:102310004268C46923F4007324F073050C682C43ED
:102320008D6843EA05230C4DA8420ED1CD6823F4F5
:10233000006343EA05234D6922F4405242EA051244
:102340008D6923F4806342EA05124260C4614968E2
:10235000C163036230BD0000002C014030B5026A49
:1023600022F480520262046A4268C3690D6823F451
:10237000E64343EA05238D6824F4005444EA053417
:10238000064DA84204D14D6922F4804242EA8512EA
:102390004260C36149680164046230BD002C0140A1
:1023A00010B5036A046A24F001040462846924F00D
:1023B000F00444EA021423F00A020A438461026230
:1023C00010BD10B5036A23F0100303628369046A29
:1023D00023F4704343EA023224F0A00343EA0111DC
:1023E0008261016210BDD0F8180220B10021C0F84E
:1023F0001412084670470220704770B50546D0F8A1
:10240000184200F027FBC4F80C02D5F8180248B1B6
:10241000D5F81C12D4F80402CA6804F50371904779
:10242000002070BD022070BD70B5044600258121DA
:1024300000F076FA0121204600F072FA822120464F
:1024400000F06EFAD4F8180250B1D4F81C0204F56A
:10245000067440688047206800F084FD00202060FA
:10246000284670BD10B5D0E9864159B194F80002F4
:10247000FF2807D08B6894F8012221469847FF2057
:1024800084F80002002010BD0A2101800048704736
:102490005C0000204321018000487047AC00002010
:1024A00043210180004870476800002043210180DB
:1024B00000487047F00000202DE9F0410446007C00
:1024C00000254FF4007670B340230222812120467C
:1024D00000F014FB402302220121204600F00EFBF5
:1024E000082303228221204600F008FB4FF40770E6
:1024F00000F03AFDC4F81802F0B10746D4F81C0207
:10250000006880470020C7F81402C7F81802207C32
:10251000D7F8042290B140230121204600F001FBAE
:102520002846BDE8F081FFE733460222812120469C
:1025300000F0E4FA3346CEE70125F1E73346EBE756
:1025400010B5D0F8181269B1027C002AD1F8042223
:1025500005D04023012100F0E4FA002010BD4FF423
:102560000073F7E7022010BD02460220002902D0C6
:102570000020C2F81C127047D0F81802C0F80412EC
:1025800000207047D0F81802C0F81022C0F80812D6
:102590000020704770B50646D0F8185208780C46EF
:1025A00010F0600121D0202927D1E288AAB10006CD
:1025B000607807D5D6F81C128B6829469847E288C0
:1025C000294617E085F80002A07985F80102E28823
:1025D0002946304600F050F80FE0D6F81C1260781B
:1025E00000228B682146984707E060780A2804D1CA
:1025F00003490122304600F059F8002070BD000068
:102600005800002010B5D0F8181289B1D1F8142262
:102610000AB1012010BD0122C1F81422B1F8102224
:1026200093B2D1F80822812100F025FB002010BDD3
:10263000022010BD10B5D0F8142252689047002037
:1026400010BD134610B50A46002100F06AFA0020BA
:1026500010BD134610B50A46002100F00CFB002007
:1026600010BD10B50446802100F0DCFA2046BDE81C
:102670001040002100F0D6BA10B50323C0F808219D
:10268000C0F8F431C0F80C2113460A46002100F0CE
:1026900048FA002010BD10B505210023C0F8F41140
:1026A0001A46194600F03DFA002010BD10B502236D
:1026B0008261C0F8F431C26113460A46002100F07D
:1026C000DAFA002010BD10B504210023C0F8F4117F
:1026D0001A46194600F0CFFA002010BD10B50A4680
:1026E000024903A000F0D4F8004810BDF40A00200D
:1026F00043444320436F6E666967000012200880E0
:10270000004870472000002010B50A46024903A087
:1027100000F0BEF8004810BDF40A002043444320F6
:10272000496E74657266616365000000042008806C
:10273000004870471C00002010B50A46024903A05B
:1027400000F0A6F8004810BDF40A002053544D696B
:1027500063726F656C656374726F6E69637300009A
:1027600010B50A46024903A000F092F8004810BDD7
:10277000F40A002053544D33322056697274756147
:102780006C20436F6D506F727400000010B50A46E4
:10279000024903A000F07CF8004810BDF40A0020B4
:1027A00030303030303030303030314100000000D7
:1027B000F8B5044648880D46010A08294BD2DFE8DF
:1027C00001F04A0409174A4A4048D4F81012207C04
:1027D0000A6832E0207C02260028D4F8140205D0D2
:1027E000C16A684688470146467041E0816AF8E759
:1027F000C0B206282FD2DFE800F003080D12171C24
:10280000D4F81012207C4A6817E0D4F81012207C0B
:102810008A6812E0D4F81012207CCA680DE0D4F85F
:102820001012207C0A6908E0D4F81012207C4A6952
:1028300003E0D4F81012207C8A696946904701466B
:1028400016E0207C38B9D4F81402416B68468847FA
:10285000F5E7207C20B129462046FFF702FFF8BDAE
:10286000D4F81402016B6846884701460720487077
:10287000BDF800000028F2D0EA88002AEFD082429A
:1028800000D90246ADF800202046FFF70FFFF8BD43
:1028900070B5002300281DD00446002502E06D1C01
:1028A000EDB2641C2678002EF9D1022404EB450415
:1028B0001480CC545B1C0322CA5400245B1C06E029
:1028C000CA545B1CDAB28C54521CD3B2401C02783E
:1028D000002AF5D170BD10B580B1D0F8143213B113
:1028E0000023C0F8143209B1C0F81012012180F899
:1028F000FC11027000F0B2F8002010BD022010BDE3
:1029000010B50024D0F82002FEF75CFA30B101289F
:1029100001D0022801D0022400E00124204610BD8D
:1029200010B50024D0F82002FEF72CFA30B10128AF
:1029300001D0022801D0022400E00124204610BD6D
:102940002DE9F0411746044641B1D4F8140242691A
:102950008AB394F8FC01032842D043E0D4F8F41180
:10296000002504F11400022933D1D0E902639E420C
:1029700007D9F31A83609AB239462046FFF769FEF9
:1029800012E04068B0FBF3F103FB1101A1B99842DA
:1029900012D3D4F8F81188420ED2002211462046F4
:1029A000FFF757FEC4F8F85100231A46194620468F
:1029B00000F0B7F80DE012E0D4F81402C16829B1B4
:1029C00094F8FC01032801D1204688472046FFF7F0
:1029D00062FE94F80002012804D184F8005201E05C
:1029E000204690470020BDE8F08170B515460446AA
:1029F00041B1D4F8140282693AB394F8FC01032877
:102A000024D025E0D4F8F41104F5827003291FD1F5
:102A1000D0E902218A420BD9531A836008468342C7
:102A200000D303469AB229462046FFF70AFE0FE07C
:102A3000D4F81402016929B194F8FC01032801D1EA
:102A4000204688472046FFF73EFE01E0204690479B
:102A5000002070BDD0F82002FEF7D8B910B51E498D
:102A60000446C1F85C04C0F820121C480860082025
:102A70004860022088600320C86000208861C86127
:102A800008620846FEF7CAFA08B1FDF7B1FC002259
:102A9000D4F820021823114604F50874FEF748F90B
:102AA0005823002280212068FEF742F9C02300222B
:102AB00081212068FEF73CF94FF488730022012140
:102AC0002068FEF735F94FF48073002282212068D8
:102AD000FEF72EF9002010BD94060020005C004097
:102AE0000A06D0F8200201F07F0100EB411002D568
:102AF00090F82A00704790F82A02704770B51D467A
:102B000013460024D0F820022A46FEF787F930B198
:102B1000012801D0022801D0022400E0012420462F
:102B200070BD10B50024D0F82002FEF799F930B13D
:102B3000012801D0022801D0022400E0012420460F
:102B400010BD70B50022044640231146FFF7D6FFA2
:102B500040252B46002280212046C4F81051FFF763
:102B6000CDFF0120256284F8FC01D4F8180228B1B9
:102B7000D4F814022179426820469047002070BDA5
:102B800090F8FD1180F8FC110020704710B590F806
:102B9000FC11032904D1D0F81412C96901B1884786
:102BA000002010BD01740020704710B50024D0F83B
:102BB0002002FEF7C6FA30B1012801D0022801D068
:102BC000022400E00124204610BD70B5044600F543
:102BD0000270054600F05FF80120C4F8F401B4F873
:102BE0000E02C4F8F80194F8080210F01F010AD090
:102BF00001290DD0022910D000F08001204600F0FC
:102C000011F8002070BD2946204600F0AAF8F8E728
:102C10002946204600F08CF9F3E72946204600F0CB
:102C200019F9EEE710B50024D0F82002FEF72FF9CD
:102C300030B1012801D0022801D0022400E0012493
:102C4000204610BD10B50024D0F82002FEF794FAFB
:102C500030B1012801D0022801D0022400E0012473
:102C6000204610BD90F8FC1180F8FD11042180F879
:102C7000FC110020704710B50024D0F82002FEF7A8
:102C800031F930B1012801D0022801D0022400E03E
:102C90000124204610BD0A7802704A7842708A7872
:102CA000CB7802EB032242800A794B7902EB0322B4
:102CB00082808A79C97902EB0121C180704702467E
:102CC000002011B1C2F8141270470220704710B5ED
:102CD000D0F8142202241AB11268904700B90024D7
:102CE000204610BD70B50E461A4D897804462970ED
:102CF000012928D894F8FC01022802D0032822D107
:102D000005E099B10320616084F8FC0109E091B10C
:102D1000606888420AD0C1B22046FFF78BFC297850
:102D200061602046FFF7D3FF02280CD02046BDE8A3
:102D30007040FFF7C8BC022084F8FC0120466160A7
:102D4000FFF778FCF2E731462046BDE87040FFF718
:102D500088BC00005400002010B5FFF773FF00206E
:102D600010BD2DE9F04100264B78012532460A2B93
:102D700043D2DFE803F03C584251420805422A277B
:102D8000FFF716FD63E004468888C8B9C888B8B95B
:102D9000887800F07F0794F8FC01032810D084F8AD
:102DA000FE7139462046FFF700FF2046FFF78BFCF7
:102DB0001FB1022084F8FC0149E084F8FC5146E090
:102DC00020461AE0FFF78EFF41E0CB88012B14D19B
:102DD00090F8FC31022B02D0032B0ED104E082606C
:102DE000012200F1080114E00122011D11E090F818
:102DF000FC21022A04D0032A02D0FFF732FC26E08D
:102E0000C560D0F8041209B10321C160022200F1AB
:102E10000C01FFF74BFC1AE004464888012816D144
:102E2000C4F804520BE0044690F8FC01022801D0DB
:102E30000328C5D14888012809D1C4F80422D4F850
:102E400014028268204690472046FFF73CFC30463B
:102E5000BDE8F08170B50D46044628780026097952
:102E6000C0F34110012806D06878A0B301281FD014
:102E700003283FD107E0D4F814022946826820468F
:102E80009047002070BD94F8FC01022817D0032859
:102E90002CD1688828B921B1802902D02046FFF7BB
:102EA000C1FED4F81402294682682046904713E0F8
:102EB00094F8FC01022802D0032817D103E0C9B11D
:102EC00080291BD116E06888A0B9480604D02046A6
:102ED000FFF716FDE5E703E02046FFF7F4FB09E006
:102EE00094F8FC01022807D003280BD0294620467D
:102EF000FFF7B7FB304670BD4806FBD02046FFF712
:102F000091FEF7E7080601F07F0004EB001501D5FC
:102F1000143501E005F582752046FFF7E1FD00B1AB
:102F200001202860022229462046FFF7BFFBE1E787
:102F300070B5054690F8FC010C4603280DD12079A8
:102F400001280AD8D5F81402826828469047E088FC
:102F500030B92846FFF7B7FB02E02846FFF781FBB0
:102F6000002070BD704700000048704774040020C6
:102F70002DE9F047CC780A7848F68F1334B1012C4C
:102F80006DD0022C08D0032C13D10BE030F8224076
:102F90001C4044F400730AE030F822401C4020F842
:102FA000224006E030F822401C4044F4C06320F880
:102FB00022300C7830F8245048F68F72154048F2D1
:102FC00080031D43254320F824508D7A48F6BF79AD
:102FD00004274BF68F7A48F2C0044CF28006EDB31A
:102FE0000D7830F825C048F280180CEA020C4CEA43
:102FF000080C20F825C0CD88B0F850C025F0010598
:1030000091F800800CEBC80C00EB4C0CCCF8005491
:103010000D89B0F850C025F0010591F8008007EB4C
:10302000C807674400EB4707C7F800544D78002DE8
:103030000D7830F825704FEA47477DD0002F05DA2C
:1030400030F825701740374320F825700D7830F898
:1030500025707F0608D530F8257001E024E01DE0DA
:103060001740274320F825700C7830F8245015407D
:10307000354320F824500C7830F8242002EA090265
:103080001A4320F824200A7830F8221001EA0A01B5
:10309000194320F822100020BDE8F08730F82240C4
:1030A0001C4044F4806382E74D78F5B18D88B0F818
:1030B000506025F001050F7806EBC70600EB4606C9
:1030C000C6F800540D7830F82560760605D530F83E
:1030D00025601640264320F825600A7830F8221033
:1030E00001EA090181F02001D2E78C88B0F8505044
:1030F00024F0010491F800C007EBCC073D4400EB3D
:103100004505C5F80044B0F850400D78062707EB98
:10311000C5052C4400EB44070C694FF6FF7C07F50E
:1031200080673E2C0CD9C4F34F15E40601D16D1E07
:10313000ADB20CEA852400E01EE044F4004407E050
:10314000C4F34F05E40701D06D1CADB20CEA852431
:103150003C600C7830F824506D0405D530F82450CC
:103160001540354320F824500A7830F8221001EA3F
:103170000A0181F440518BE7002F05DA30F8257001
:103180001740374320F825700D7830F82560760613
:1031900005D530F825601640264320F825600E78C6
:1031A00030F826501540254320F826500C7830F88A
:1031B000242002EA0A0282F440521A4320F8242012
:1031C0000A7830F8221001EA090161E7002070470F
:1031D0002DE9F04391F80A8091F801C00A7848F689
:1031E000BF774BF68F7948F2800348F2C0054CF266
:1031F000800648F68F74B8F1000F2ED0BCF1000F96
:1032000030F822C04FEA4C4C4ED0BCF1000F07DA28
:1032100030F822C00CEA040C4CEA060C20F822C05C
:103220000A7830F822C05FEA4C6C07D530F822C02B
:103230000CEA040C4CEA050C20F822C00A7830F89D
:1032400022502540354320F822500C7830F82420B5
:103250003A401A4320F824201BE0BCF1000F0ED0A6
:1032600030F82260760605D530F8226026402E43DD
:1032700020F822600A7830F8221039400EE030F849
:1032800022506D0405D530F822502540354320F8F2
:1032900022500A7830F8221001EA0901194320F877
:1032A00022100020BDE8F083BCF1000F07DA30F8EF
:1032B00022C00CEA040C4CEA060C20F822C00A7862
:1032C00030F82260760605D530F8226026402E437D
:1032D00020F822600E7830F8262022402A4320F879
:1032E00026200C7830F8242002EA09021A4320F83C
:1032F0002420BFE7002070470020704700B501215F
:10330000A0F840100021A0F84010A0F84410A0F848
:10331000501000F03AF9002000BD30F8401F21F4B1
:103320003D410180002070470020704730B54D7846
:103330000A78002D48F68F7430F8225048F2800346
:1033400012D06D0607D530F82250254048F2C0044F
:10335000254320F822500A7830F8221048F6BF742E
:10336000214081F0300111E06D0407D530F8225082
:1033700025404CF28004254320F822500A7830F88A
:1033800022104BF68F74214081F44051194320F8EC
:103390002210002030BD10B50A7848F2800352B1E7
:1033A0004978002930F8221010D048F6BF74214027
:1033B00081F010010FE001884BF6BF72114081F4DB
:1033C000805181F010011943018007E04BF68F74A2
:1033D000214081F48051194320F82210002010BDB3
:1033E0002DE9F0410D460646896995F801C0002394
:1033F000AA7A022728690C4648F28008BCF1010F1E
:1034000005D0814252D90446081AA8614FE0814292
:1034100003D90446081AA86100E0AB617AB12878A4
:1034200036F820104906B6F8501007EBC0000844E3
:1034300006EB4000C0F8004412D52A8911E0A3B27F
:10344000AA883046696900F0C8F8B6F850002978B3
:1034500007EBC101084406EB4000C0F800441CE043
:10346000EA88A3B23046696900F0B7F8687848F690
:103470008F7110B1012807D00FE0287836F820208E
:103480000A4048F2C00105E0287836F820200A40BA
:103490004CF280010A4326F82020297836F82100D2
:1034A00048F6BF72104080F0300067E0AB61062341
:1034B0004FF6FF701AB1BCF1000F1BD056E0B6F802
:1034C00050102A783E2C03EBC202114406EB410255
:1034D00002F5806239D9C4F34F11E30632D000BF40
:1034E00000EA812040F4004002E000BF00EA8120B1
:1034F00010603BE0B6F850102A783E2C07EBC20271
:10350000114406EB410202F580620BD9C4F34F115E
:103510005FEAC46C01D1491E89B200EA812141F4FD
:10352000004108E0C4F34F015FEAC47C01D0491CAC
:1035300089B200EA8121116069780029BFD0012990
:103540000AD013E0491E89B2CAE7C4F34F01E3076A
:10355000CCD0491C89B2C9E7B6F85000297807EBEE
:10356000C101084406EB4000C0F80044297836F851
:1035700021004BF68F72104080F4405040EA080062
:1035800026F821000020BDE8F08130F8401F41F40A
:103590003F410180002070470148FDF7B8BC0000A2
:1035A00094060020B0F84400704700005B1C00EB5C
:1035B00042005B0800F5806006D000BF30F8042BA5
:1035C00021F8022B5B1EF9D170470020704711B91A
:1035D0008021A0F84C100020704710B55B1C00EB58
:1035E00042005B0800F5806009D011F8012B5B1EDA
:1035F00011F8014B42EA042220F8042BF5D110BD4A
:10360000FEE700000FB4084B10B504A902AA039806
:1036100000F01CF8044602A9002000F0C1F8204682
:1036200010BC5DF814FB0000A137000802E008C8D8
:10363000121F08C1002AFAD170477047002001E02C
:1036400001C1121F002AFBD1704700002DE9FF4F76
:1036500089B09B460446002506E025280BD05A4633
:103660000B999047641C6D1C20780028F5D10DB093
:103670002846BDE8F08F0027B8460122474900E000
:10368000074314F8013F203B02FA03F00842F7D148
:1036900020782E2819D114F8010F47F004072A28A2
:1036A0000ED06FF02F022078A0F1300109290CD83C
:1036B00008EB880102EB410100EB0108641CF2E712
:1036C0000A98641C50F8048B0A9020780028CED009
:1036D000642808D0692806D075281ED05A460B9950
:1036E00090476D1C58E00A994FF00A0901C90A91E8
:1036F000002802DA40422D2102E0390504D52B21B1
:103700008DF82010012103E0F90704D02021F7E70C
:103710008A4608AE0DE00021FAE70A994FF00A093F
:1037200001C90A91F7E74946FCF720FD303106F858
:10373000011D0028F7D1ADEB060000F12009780744
:1037400001D44FF00108C84502DDA8EB090000E0F4
:1037500000208046002706E008A85A46C05D0B9965
:1037600090476D1C7F1C5745F6DB04E030205A461D
:103770000B9990476D1CB8F10001A8F10108F5DC28
:1037800005E016F8010B5A460B9990476D1CB9F1EC
:103790000001A9F10109F4DC641C65E709280100B6
:1037A0000A68531C0B601070704700002DE9F0414F
:1037B0001C4D4FF48054002221462846FDF716FA8E
:1037C000194FE600002231463846FDF70FFA4FF454
:1037D0007A784046FDF71AF9002221462846FDF77F
:1037E00005FA012231463846FDF700FA4046FDF75A
:1037F0000DF9012221462846FDF7F8F9002231464D
:103800003846FDF7F3F94046FDF700F9012221465D
:103810002846FDF7EBF931463846BDE8F041012274
:10382000FDF7E4B9000C014000080140A2B00020FF
:1038300020902190142102A8FCF78DFC642107A898
:10384000FCF789FCFDF7E6F9FEF769FCFEF7DEF907
:103850001C48416941F0010141614069002200F0CA
:103860000100009011460B20FDF730FA0B20FDF708
:1038700021FAFEF763F9FEF79FF9FEF713FAFEF758
:103880006BFAFFF793FF4FF47A74052202A90E48F2
:10389000FCF726FF0C48022220A93030FCF720FF5D
:1038A000DDE90401CDE90001DDE9022307A107A854
:1038B000FFF7A8FE642107A8FCF768FD2046FDF786
:1038C000A5F8E2E7001002406C0100206125752098
:1038D0002C622575202C632575202C64257520000D
:1038E00000000000000000000102030406070809B0
:1038F00010390008000000206C010000BC01000825
:10390000D03900086C0100205C1700003C3600082C
:1039100013FD2614082D271B0839041A61041A8D7B
:10392000041ADD141A090817040309041201140209
:10393000020216408304405726020102030113517C
:10394000031B084B041A47041A750419131182103B
:1039500084A24A04130A0632022A40201C090243A8
:103960003F111CC032091F1B01020B130524161046
:10397000010524011009010424020205240617018F
:1039800007058203081C10090475320A1D0705018A
:1039900002432C070581070938442A40072A81077A
:1039A000112B0907440A2204440A16FF4413B924C0
:1039B0001B08290413952542081A650C13E7231BDD
:1039C00008FB04C12AA12419041AAD041A890400B1
:04000005080000ED02
:00000001FF
